:020000040800F2
:1000000000000220712801081526000819260008A2
:100010001D260008212600082526000800000000F3
:100020000000000000000000000000004167000820
:100030002926000800000000D16700083568000884
:10004000C1280108C1280108C1280108C1280108E8
:10005000C1280108C1280108C1280108C1280108D8
:10006000C12801082D26000835260008C1280108EE
:10007000C1280108C1280108C1280108C1280108B8
:10008000C1280108C1280108C1280108C1280108A8
:100090003D260008C1280108C1280108492600089A
:1000A000C1280108C1280108C1280108C128010888
:1000B00061260008C1280108C1280108C1280108DB
:1000C000C1280108C1280108C1280108C128010868
:1000D000C12801086D260008C128010879260008FA
:1000E000C1280108C1280108C1280108C128010848
:1000F000C1280108C1280108C1280108C128010838
:10010000C1280108C1280108C1280108C128010827
:10011000C1280108C1280108C1280108C128010817
:10012000C128010885260008C1280108C128010846
:10013000C1280108C1280108C1280108C1280108F7
:1001400091260008C1280108C1280108C12801081A
:100150009D260008A9260008B5260008C12600082B
:10016000C1280108C1280108C1280108C1280108C7
:10017000C1280108C1280108C128010800000000A9
:08018000C1280108C128010893
:1001900010B5054C237833B9044B13B10448AFF3C1
:1001A00000800123237010BD7806002000000000AD
:1001B000947C010808B5034B1BB103490348AFF316
:1001C000008008BD000000007C060020947C01082F
:1001D00001F0FF01102A2BDB10F0070F08D010F8F8
:1001E000013B013A8B422DD010F0070F42B3F6D1FC
:1001F000F0B441EA012141EA014122F007047FF015
:1002000000070023F0E80256083C85EA010586EA6B
:10021000010685FA47F5A3FA87F586FA47F6A5FAA7
:1002200087F68EB9EED1F0BC01F0FF0102F00702B3
:1002300032B110F8013B013A83EA010313B1F8D15E
:100240000020704701387047002D06BF354603383F
:10025000073815F0010F07D1013015F4807F02BF78
:10026000013015F4C03F0130F0BC0138704700BFC9
:1002700081F0004102E000BF83F0004330B54FEA57
:1002800041044FEA430594EA050F08BF90EA020FC4
:100290001FBF54EA000C55EA020C7FEA645C7FEA57
:1002A000655C00F0E2804FEA5454D4EB5555B8BF7A
:1002B0006D420CDD2C4480EA020281EA030382EAEB
:1002C000000083EA010180EA020281EA0303362D7D
:1002D00088BF30BD11F0004F4FEA01314FF4801C50
:1002E0004CEA113102D0404261EB410113F0004F62
:1002F0004FEA03334CEA133302D0524263EB430319
:1003000094EA050F00F0A780A4F10104D5F1200EB6
:100310000DDB02FA0EFC22FA05F2801841F1000111
:1003200003FA0EF2801843FA05F359410EE0A5F1E5
:1003300020050EF1200E012A03FA0EFC28BF4CF016
:10034000020C43FA05F3C01851EBE37101F00045CC
:1003500007D54FF0000EDCF1000C7EEB00006EEBD9
:100360000101B1F5801F1BD3B1F5001F0CD3490863
:100370005FEA30004FEA3C0C04F101044FEA4452BA
:1003800012F5800F80F09A80BCF1004F08BF5FEA41
:10039000500C50F1000041EB045141EA050130BD21
:1003A0005FEA4C0C404141EB0101013C28BFB1F533
:1003B000801FE9D291F0000F04BF01460020B1FA7E
:1003C00081F308BF2033A3F10B03B3F120020CDA51
:1003D0000C3208DD02F1140CC2F10C0201FA0CF02F
:1003E00021FA02F10CE002F11402D8BFC2F1200C94
:1003F00001FA02F120FA0CFCDCBF41EA0C0190404A
:10040000E41AA2BF01EB0451294330BD6FEA040492
:100410001F3C1CDA0C340EDC04F11404C4F120027D
:1004200020FA04F001FA02F340EA030021FA04F38F
:1004300045EA030130BDC4F10C04C4F1200220FAE6
:1004400002F001FA04F340EA0300294630BD21FA24
:1004500004F0294630BD94F0000F83F4801306BFEA
:1004600081F480110134013D4EE77FEA645C18BFDE
:100470007FEA655C29D094EA050F08BF90EA020F75
:1004800005D054EA000C04BF1946104630BD91EA6D
:10049000030F1EBF0021002030BD5FEA545C05D170
:1004A0004000494128BF41F0004130BD14F58004AF
:1004B0003CBF01F5801130BD01F0004545F0FE4123
:1004C00041F470014FF0000030BD7FEA645C1ABF58
:1004D000194610467FEA655C1CBF0B46024650EA8F
:1004E000013406BF52EA033591EA030F41F40021BB
:1004F00030BD00BF90F0000F04BF0021704730B541
:100500004FF4806404F132044FF000054FF0000115
:1005100050E700BF90F0000F04BF0021704730B5D6
:100520004FF4806404F1320410F0004548BF4042AB
:100530004FF000013EE700BF42004FEAE2014FEA00
:1005400031014FEA02701FBF12F07F4393F07F4FDB
:1005500081F06051704732F07F4208BF704793F0DE
:100560007F4F04BF41F40021704730B54FF46074F1
:1005700001F0004521F000411CE700BF50EA0102F4
:1005800008BF704730B54FF000050AE050EA01029D
:1005900008BF704730B511F0004502D5404261EB0D
:1005A00041014FF4806404F132045FEA915C3FF44E
:1005B000D8AE4FF003025FEADC0C18BF03325FEAEB
:1005C000DC0C18BF033202EBDC02C2F1200300FA9C
:1005D00003FC20FA02F001FA03FE40EA0E0021FAC1
:1005E00002F11444BDE600BF70B54FF0FF0C4CF4AF
:1005F000E06C1CEA11541DBF1CEA135594EA0C0F61
:1006000095EA0C0F00F0DEF82C4481EA030621EA9B
:100610004C5123EA4C5350EA013518BF52EA0335D6
:1006200041F4801143F4801338D0A0FB02CE4FF088
:100630000005E1FB02E506F00042E0FB03E54FF0B8
:100640000006E1FB03569CF0000F18BF4EF0010EB0
:10065000A4F1FF04B6F5007F64F5407404D25FEAAC
:100660004E0E6D4146EB060642EAC62141EA55515F
:100670004FEAC52040EA5E504FEACE2EB4F1FD0CA1
:1006800088BFBCF5E06F1ED8BEF1004F08BF5FEA1F
:10069000500E50F1000041EB045170BD06F00046D1
:1006A00046EA010140EA020081EA0301B4EB5C047E
:1006B000C2BFD4EB0C0541EA045170BD41F4801176
:1006C0004FF0000E013C00F3AB8014F1360FDEBF9B
:1006D000002001F0004170BDC4F10004203C35DA77
:1006E0000C341BDC04F11404C4F1200500FA05F3FA
:1006F00020FA04F001FA05F240EA020001F000429B
:1007000021F0004110EBD37021FA04F642EB060110
:100710005EEA430E08BF20EAD37070BDC4F10C043A
:10072000C4F1200500FA04F320FA05F001FA04F2FE
:1007300040EA020001F0004110EBD37041F10001EA
:100740005EEA430E08BF20EAD37070BDC4F12005F5
:1007500000FA05F24EEA020E20FA04F301FA05F25D
:1007600043EA020321FA04F001F0004121FA04F205
:1007700020EA020000EBD3705EEA430E08BF20EAD5
:10078000D37070BD94F0000F0FD101F0004640000F
:1007900041EB010111F4801F08BF013CF7D041EA91
:1007A000060195F0000F18BF704703F00046520095
:1007B00043EB030313F4801F08BF013DF7D043EA66
:1007C0000603704794EA0C0F0CEA135518BF95EA1C
:1007D0000C0F0CD050EA410618BF52EA4306D1D1A3
:1007E00081EA030101F000414FF0000070BD50EAC2
:1007F000410606BF1046194652EA430619D094EA4C
:100800000C0F02D150EA013613D195EA0C0F05D135
:1008100052EA03361CBF104619460AD181EA030189
:1008200001F0004141F0FE4141F470014FF0000041
:1008300070BD41F0FE4141F4780170BD70B54FF0DC
:10084000FF0C4CF4E06C1CEA11541DBF1CEA13555C
:1008500094EA0C0F95EA0C0F00F0A7F8A4EB05043E
:1008600081EA030E52EA03354FEA013100F0888035
:100870004FEA03334FF0805545EA131343EA1263FE
:100880004FEA022245EA111545EA10654FEA0026B3
:100890000EF000419D4208BF964244F1FD0404F56C
:1008A000407402D25B084FEA3202B61A65EB0305C8
:1008B0005B084FEA32024FF480104FF4002CB6EB85
:1008C000020E75EB030E22BFB61A754640EA0C0005
:1008D0005B084FEA3202B6EB020E75EB030E22BF45
:1008E000B61A754640EA5C005B084FEA3202B6EB86
:1008F000020E75EB030E22BFB61A754640EA9C0045
:100900005B084FEA3202B6EB020E75EB030E22BF14
:10091000B61A754640EADC0055EA060E18D04FEAD2
:10092000051545EA16754FEA06164FEAC30343EA72
:1009300052734FEAC2025FEA1C1CC0D111F4801F3F
:100940000BD141EA00014FF000004FF0004CB6E738
:1009500011F4801F04BF01430020B4F1FD0C88BFD7
:10096000BCF5E06F3FF6AFAEB5EB030C04BFB6EBE2
:10097000020C5FEA500C50F1000041EB045170BDD5
:100980000EF0004E4EEA113114EB5C04C2BFD4EB02
:100990000C0541EA045170BD41F480114FF0000E86
:1009A000013C90E645EA060E8DE60CEA135594EA02
:1009B0000C0F08BF95EA0C0F3FF43BAF94EA0C0F05
:1009C0000AD150EA01347FF434AF95EA0C0F7FF47A
:1009D00025AF104619462CE795EA0C0F06D152EACE
:1009E00003353FF4FDAE1046194622E750EA4106B2
:1009F00018BF52EA43067FF4C5AE50EA41047FF4C3
:100A00000DAF52EA43057FF4EBAE12E74FF0FF3C27
:100A100006E000BF4FF0010C02E000BF4FF0010CF8
:100A20004DF804CD4FEA410C7FEA6C5C4FEA430C71
:100A300018BF7FEA6C5C1BD001B050EA410C0CBFC0
:100A400052EA430C91EA030F02BF90EA020F002022
:100A5000704710F1000F91EA030F58BF994208BF89
:100A600090422CBFD8176FEAE37040F00100704746
:100A70004FEA410C7FEA6C5C02D150EA013C07D19D
:100A80004FEA430C7FEA6C5CD6D152EA033CD3D0E8
:100A90005DF8040B704700BF8446104662468C46E2
:100AA0001946634600E000BF01B5FFF7B7FF002815
:100AB00048BF10F1000F01BD4DF808EDFFF7F4FF3E
:100AC0000CBF012000205DF808FB00BF4DF808EDC9
:100AD000FFF7EAFF34BF012000205DF808FB00BFEC
:100AE0004DF808EDFFF7E0FF94BF012000205DF80E
:100AF00008FB00BF4DF808EDFFF7CEFF94BF0120C3
:100B000000205DF808FB00BF4DF808EDFFF7C4FFBB
:100B100034BF012000205DF808FB00BF4FEA41020E
:100B200012F5001215D211D56FF47873B3EB62523F
:100B300012D94FEAC12343F0004343EA505311F066
:100B4000004F23FA02F018BF404270474FF00000F8
:100B5000704750EA013005D111F0004008BF6FF036
:100B6000004070474FF00000704700BF4FEA41025D
:100B7000B2F1E04324BFB3F5001CDCF1FE5C0DD9FB
:100B800001F0004C4FEAC0024CEA5070B2F1004F45
:100B900040EB830008BF20F00100704711F0804F48
:100BA00021D113F13872BCBF01F00040704741F40D
:100BB00080114FEA5252C2F11802C2F1200C10FA11
:100BC0000CF320FA02F018BF40F001004FEAC123F5
:100BD0004FEAD32303FA0CFC40EA0C0023FA02F399
:100BE0004FEA4303CCE77FEA625307D150EA01336F
:100BF0001EBF4FF0FE4040F44000704701F000403F
:100C000040F0FE4040F40000704700BF53B94AB9BD
:100C1000002908BF00281CBF4FF0FF314FF0FF3004
:100C200000F074B9ADF1080C6DE904CE00F006F8DF
:100C3000DDF804E0DDE9022304B070472DE9F04758
:100C4000089D04468E46002B4DD18A42944669D9B0
:100C5000B2FA82F252B101FA02F3C2F1200120FA93
:100C600001F10CFA02FC41EA030E94404FEA1C48E1
:100C7000210CBEFBF8F61FFA8CF708FB16E341EADD
:100C8000034306FB07F199420AD91CEB030306F163
:100C9000FF3080F01F81994240F21C81023E634484
:100CA0005B1AA4B2B3FBF8F008FB103344EA034428
:100CB00000FB07F7A7420AD91CEB040400F1FF333D
:100CC00080F00A81A74240F207816444023840EA7A
:100CD0000640E41B00261DB1D4400023C5E90043B3
:100CE0003146BDE8F0878B4209D9002D00F0EF8036
:100CF0000026C5E9000130463146BDE8F087B3FA69
:100D000083F6002E4AD18B4202D3824200F2F98050
:100D1000841A61EB030301209E46002DE0D0C5E953
:100D2000004EDDE702B9FFDEB2FA82F2002A40F09F
:100D30009280A1EB0C014FEA1C471FFA8CFE0126A2
:100D4000200CB1FBF7F307FB131140EA01410EFB46
:100D500003F0884208D91CEB010103F1FF3802D2ED
:100D6000884200F2CB804346091AA4B2B1FBF7F0E7
:100D700007FB101144EA01440EFB00FEA64508D90A
:100D80001CEB040400F1FF3102D2A64500F2BB8047
:100D90000846A4EB0E0440EA03409CE7C6F1200796
:100DA000B34022FA07FC4CEA030C20FA07F401FADC
:100DB00006F31C43F9404FEA1C4900FA06F3B1FB65
:100DC000F9F8200C1FFA8CFE09FB181140EA0141CA
:100DD00008FB0EF0884202FA06F20BD91CEB010167
:100DE00008F1FF3A80F08880884240F28580A8F1BF
:100DF00002086144091AA4B2B1FBF9F009FB101111
:100E000044EA014100FB0EFE8E4508D91CEB0101AE
:100E100000F1FF346CD28E456AD90238614440EA51
:100E20000840A0FB0294A1EB0E01A142C846A646D1
:100E300056D353D05DB1B3EB080261EB0E0101FA5A
:100E400007F722FA06F3F1401F43C5E900710026B7
:100E50003146BDE8F087C2F12003D8400CFA02FC0D
:100E600021FA03F3914001434FEA1C471FFA8CFE1D
:100E7000B3FBF7F007FB10360B0C43EA064300FB0D
:100E80000EF69E4204FA02F408D91CEB030300F1AB
:100E9000FF382FD29E422DD9023863449B1B89B262
:100EA000B3FBF7F607FB163341EA034106FB0EF3EB
:100EB0008B4208D91CEB010106F1FF3816D28B4298
:100EC00014D9023E6144C91A46EA004638E72E4664
:100ED000284605E70646E3E61846F8E64B45A9D25C
:100EE000B9EB020864EB0C0E0138A3E74646EAE7CB
:100EF000204694E74046D1E7D0467BE7023B614479
:100F000032E7304609E76444023842E7704700BFE1
:100F100010B5002394B0CDE90A33CDE90C33CDE907
:100F20000233CDE90433224900930693086C214A29
:100F300040F080500864096C01F0805100910099E4
:100F40000193136843F48043136013689FED147B8F
:100F500003F48043022101934FF480000623CDE97E
:100F60000E10A822109308A80723CDE911218DEDBA
:100F7000087B1393019C01F007FC9FED0B7B002283
:100F80004FF4A053CDE9042302A84FF48053052168
:100F90008DED027B069301F007FE14B010BD00BF7B
:100FA00001000000000001000F000000020000002E
:100FB000003802400070004008B502F055FAFFF713
:100FC000A7FF00F045F800F0D9FB00F007FB00F0A8
:100FD00025FB00F027FC00F0F7FF01F059F801F0C5
:100FE00077F901F0CDF800F04FFF00F0D5FC00F0EC
:100FF0000FFD01F051F901F089F9A8200EF0E8FD8C
:101000000EF0C0F909480A4C4FF4807101F0DEFF80
:1010100008480DF077FF0021204611F0DDFA002886
:10102000F9D100F05FFA05F0E9F9FEE700080240A7
:10103000700E0020681200200368B3F1804F00D0CA
:10104000704702F02BBA00BF704700BF00000000DD
:101050002DE9F04F2DED048B002491B0CDE90A4429
:10106000CDE90C44B84B01940E941A6BB74FDFF8DE
:10107000F0B2DFF8F082B64D42F002021A631A6B4A
:1010800002F002020192019A02941A6B42F04002AD
:101090001A631A6B02F040020292029A03941A6BCE
:1010A00042F001021A631A6B02F001020392039AE2
:1010B00004941A6B42F008021A631A6B02F00802D9
:1010C0000492049A05941A6B42F004021A631A6B94
:1010D00002F004020592059A06941A6B42F480729B
:1010E0001A631A6B02F480720692069A07941A6BBE
:1010F00042F020021A631A6B02F020020792079A4C
:1011000008941A6B42F080021A631A6B02F0800294
:101110000892089A09941A6B42F010021A631B6B2A
:1011200003F010030993224638464FF48071099B5F
:1011300001F048FF58460122402101F043FF40469C
:101140000122102101F03EFF0122284641F2010157
:1011500001F038FF9FED668B9FED677B4FF0040930
:101160000AA928468DED0A7BCDF838908DED0C8BC1
:1011700001F0FAFD9FED627B0AA976480C948DED93
:101180000A7B01F0F1FD744BCDF838909FED5E7B4A
:1011900018460AA98DED0A7B8DED0C8B01F0E4FD5C
:1011A0009FED5B7B0AA938468DED0A7BCDF8389020
:1011B0008DED0C8B01F0D8FD9FED577B0AA94046C1
:1011C0008DED0A7BCDF838908DED0C8B01F0CCFDC8
:1011D0009FED537B8DED0A7B9FED537B0AA938462B
:1011E0009FED539B8DED0C7B01F0BEFD9FED527B7F
:1011F0000AA958468DED0A7B8DED0C9B01F0B4FDDC
:101200009FED4F7B4FF0010A58460AA98DED0A7BEE
:10121000CDF830A001F0A8FD4F4B0C9418460AA958
:101220004FF480620323CDE90A2301F09DFD0AA952
:10123000404601220023CDE90A234FF00209CDF8F0
:1012400030A001F091FD40460AA94FF0010810229C
:101250000123CDE90A23CDE90C8901F085FD3F4B3F
:10126000CDF830A038460AA93022CDE90A2301F092
:101270007BFD0AA928464FF4805201230526CDE9BB
:101280000A238DED0C9B01F06FFD02234FF46042A9
:101290000AA92846CDE90A238DED0C8B0E9601F0A4
:1012A00063FD28460AA98DED0A9BCDE90C8901F062
:1012B0005BFD22463146092002F078F8092002F051
:1012C000B3F8224631460A2002F070F80A2002F0F4
:1012D000ABF822463146172002F068F8172002F0DA
:1012E000A3F811B0BDEC048BBDE8F08FAFF3008024
:1012F00001000000030000000003000012000000D5
:10130000C0000000000011100300000012000000E7
:1013100000020000120000000001000012000000A6
:1013200000010000010000000000000000000000BB
:10133000010000000100000040000000010000006A
:1013400008000000000021100038024000080240A0
:10135000000402400020024000140240000021105E
:10136000001802400000024008B5012005F07EF898
:10137000FBE700BF80B50BF0BFFE642005F076F8F8
:10138000124D134FDFF850A0124CDFF85090DFF8E9
:10139000508000262B787BB13B68B3F5FA6F0AD2F8
:1013A000BAF8163003F4C073B3F5C07F494640461F
:1013B00001D00EF035FA2E700CF0B6F8236801203B
:1013C0000344236005F052F8E4E700BFAC000120BD
:1013D00078770020B0060020B40001209C00012096
:1013E000600D002080B50CF0D7FE0F4D0F4C00268D
:1013F00040F2DC574FF0010805E026600DF05CF884
:10140000012005F033F8EB8A03F4C073B3F5C07F15
:10141000F3D123680133B7EB430F2360EED288F397
:10142000138802F00FF8E9E7B40001207877002074
:1014300008B505F0C9FA05F0BBFB022005F016F867
:10144000F9E700BF08B50AF09BFE642005F00EF82E
:101450000BF01CF8012005F009F8F9E780B50D48FC
:101460000D4C0E4F0E4E0F4D07F0ACFF08F080FAFA
:10147000012004F0FBFF236806FB03F2B2F1333FC7
:10148000284604D897F8E91A0EF04EFA236801337B
:101490002360EBE7A8120020AC060020F0E100205A
:1014A000CDCCCCCC600D0020044B036010B4802365
:1014B000034C0C605DF8044B13607047B4080020C7
:1014C000B4060020054B036010B44FF48073044C45
:1014D0000C605DF8044B1360704700BF080D0020DE
:1014E0000809002010B5364CA646BEE80F00AAB089
:1014F000EC46ACE80F009EE807008CE807000021EE
:10150000684604F081FF2F4B04F11C0E1860BEE802
:101510000F000DF11C0CACE80F009EE807008CE8F2
:101520000700002107A804F06FFF274B04F1380ED5
:101530001860BEE80F000DF1380CACE80F009EE813
:1015400007008CE8070000210EA804F05DFF1F4B88
:1015500004F1540E1860BEE80F000DF1540CACE815
:101560000F009EE807008CE80700002115A804F092
:101570004BFF174B04F1700E1860BEE80F000DF121
:10158000700CACE80F009EE807008CE80700002113
:101590001CA804F039FF0F4B04F18C0C1860BCE858
:1015A0000F0023AC0FC49CE8070084E8070000216B
:1015B00023A804F029FF084B18602AB010BD00BF13
:1015C000B07C0108A0060020A40600209C06002094
:1015D000A806002094060020980600200D480E4919
:1015E000032210B50023C0E900124FF480724FF4BB
:1015F00010244FF4001182618383C0E90233C0E9F3
:10160000044101F06FFF00B910BDBDE81040FFF7C5
:101610001BBD00BF600D0020006400400D480E4956
:10162000032210B50023C0E900124FF480724FF47A
:1016300010244FF4001182618383C0E90233C0E9B2
:10164000044101F04FFF00B910BDBDE81040FFF7A5
:10165000FBBC00BF880D00200068004030B5026868
:1016600040498DB000238A42CDE90633CDE90833E5
:101670000A9337D03C498A4201D00DB030BD3B4A75
:101680000393116C3A4841F080611164116C01F0D0
:10169000806103910168039C01310129016055D0EB
:1016A000324B00240594186B40F0020018631B6B4A
:1016B000304803F00203059360220223CDE906239C
:1016C00006A909230322CDE90923059D01F04CFB5E
:1016D00022460621402001F069FE402001F0A4FED0
:1016E0000DB030BD22490A680132012A0A6021D0BA
:1016F0001E4B00240294186B40F0080018631B6B0B
:101700001D4803F00803029303220223CDE90623B8
:1017100006A909230322CDE90923029D01F024FB38
:1017200022460621142001F041FE142001F07CFE27
:101730000DB030BD0D4A0193136C43F00073136478
:10174000136C03F000730193019BD1E70493136CB6
:1017500043F000731364136C03F000730493049B51
:101760009EE700BF0064004000680040003802406F
:101770005C0D002000040240000C024000B583B064
:10178000274B00220092196B41F480011963186BFA
:1017900000F48000009000980192186B40F4001053
:1017A00018631B6B03F40013052101930C20019BAC
:1017B00001F0FCFD0C2001F037FE0022114639201B
:1017C00001F0F4FD392001F02FFE002205213A201E
:1017D00001F0ECFD3A2001F027FE002205213B201C
:1017E00001F0E4FD3B2001F01FFE002211464420E1
:1017F00001F0DCFD442001F017FE00220521452008
:1018000001F0D4FD452001F00FFE00224620052105
:1018100001F0CCFD462003B05DF804EB01F004BEFE
:101820000038024010B50F480F4C4FF48272C0E9E7
:101830000042022101220023C0E904124FF4007487
:1018400010210A22C0E90233C0E90641C0E9083389
:10185000C0E90A3202F042FA00B910BDBDE81040FA
:10186000FFF7F2BB700E0020003001402DE9F0437D
:10187000424B02688BB000249A42CDE90444CDE982
:101880000644089402D00BB0BDE8F08303F584331E
:1018900001945A6C3A4E42F480525A645A6C02F4E3
:1018A00080520192019A02941A6B42F002021A636A
:1018B0001A6B02F002020292029A03941A6B42F02F
:1018C00001021A631B6B03F0010303931822022326
:1018D0004FF001084FF00309052704A905462948E0
:1018E0000897CDE90423CDE90689039B01F03CFA72
:1018F000802202232448089704A9CDE90423CDE9D6
:10190000068901F031FA214A74624FF0C063C6E9DA
:10191000002330464FF480624FF44033C6E902445E
:10192000C6E90424C6E90644336201F065FBF0B958
:10193000174C1849EE644FF0C062C4E900124FF42E
:10194000806200234021226120464FF40032C4E926
:101950000213C4E90533C4E90732B563636201F0D9
:101960004BFB38B9AC64A5630BB0BDE8F083FFF75F
:101970006BFBDDE7FFF768FBF4E700BF00300140D9
:10198000B00D00200004024000000240406402400C
:10199000100E00205864024000B51A481A4A02602E
:1019A000002387B042F2CF02CDE90233CDE9043300
:1019B000CDE90033C0E90133C0E90323836102F0BC
:1019C000F5FA98B94FF480530E48029302A902F039
:1019D00025FD98B9002200230A486946CDE9002375
:1019E00002F072FE28B907B05DF804FBFFF72CFB8C
:1019F000E8E7FFF729FB07B05DF804FBFFF724FBDE
:101A0000E8E700BF480F002000040040000000008D
:101A100010B57149714C94B053220023C4E90012EF
:101A2000204640F2CF72CDE90C33CDE90E33CDE93B
:101A30001033C4E9023212932361A36102F0B6FAB3
:101A400068BB664802F040FB30BB9FED597B00222B
:101A500062480E920CA98DED0C7B109202F0D6FB21
:101A6000B8B922685E4900238A42CDE90633CDE940
:101A700008330A9330D05B498A4248D05A498A4297
:101A800060D05A498A420DD053498A4275D014B069
:101A900010BDFFF7D9FAE4E7FFF7D6FAD5E7FFF76D
:101AA000D3FACEE7524A0493136B524843F004032F
:101AB0001363136B9FED407B03F004030493012237
:101AC0000223CDE9082306A903238DED067B049AA2
:101AD0000A9301F049F9DAE7454A0193136B464846
:101AE00043F010031363136B9FED357B03F010037A
:101AF000019301220223CDE9082306A901238DEDDC
:101B0000067B019A0A9301F02FF914B010BD384AF0
:101B10000293136B394843F008031363136B9FED73
:101B20002A7B03F00803029301220323CDE9082353
:101B300006A902238DED067B029A0A9301F014F99F
:101B400014B010BD2A4A0393136B2D4843F0800351
:101B50001363136B9FED1E7B03F08003039301223D
:101B60000223CDE9082306A902238DED067B039A03
:101B70000A9301F0F9F814B010BD1D4A0593136BD8
:101B8000204843F020031363136B9FED0B7B03F09E
:101B90002003059301220223CDE9082306A903238C
:101BA0008DED067B059A0A9301F0DEF86FE700BF22
:101BB0006000000000000000400000000200000083
:101BC000006A000002000000004000000200000067
:101BD000001C00000200000000440140080F00202B
:101BE0000000014000080040000C004000040140DB
:101BF000003802400008024000100240000C024081
:101C0000001C024000140240324A0368934286B02E
:101C100029D0314A934218D0304A93423ED0304ABC
:101C2000934249D02F4A93422BD02F4A934218D146
:101C30002E4B002205925A6C42F400325A645B6CBF
:101C400003F400330593059B0BE0284B002201921F
:101C50001A6C42F002021A641B6C03F00203019337
:101C6000019B06B07047214B002200925A6C42F053
:101C700001025A645B6C03F001030093009B06B001
:101C800070471A4B002204925A6C42F002025A64C6
:101C90005B6C03F002030493049BE2E7134B002206
:101CA00002921A6C42F004021A641B6C03F00403E3
:101CB0000293029B06B070470C4B002203921A6CF1
:101CC00042F008021A641B6C03F008030393039BA1
:101CD00006B07047000001400004004000080040CA
:101CE000000C004000040140004401400038024064
:101CF00000B5026858498DB000238A42CDE9063309
:101D0000CDE908330A9328D054498A4241D0544936
:101D10008A425AD053498A4205D053498A4270D0E8
:101D20000DB05DF804FB514A0493136B504843F027
:101D300004031363136B9FED407B03F004030493D0
:101D400001220223CDE9082306A903238DED067B9A
:101D5000049A0A9301F008F8E2E7444A0193136BEE
:101D6000444843F010031363136B9FED357B03F07E
:101D70001003019301220223CDE9082306A90123C0
:101D80008DED067B019A0A9300F0EEFF0DB05DF831
:101D900004FB364A0293136B374843F0080313637E
:101DA000136B9FED297B03F00803029301220323A9
:101DB000CDE9082306A902238DED067B029A0A933A
:101DC00000F0D2FF0DB05DF804FB284A0393136BBB
:101DD0002A4843F080031363136B9FED1D7B03F0D0
:101DE0008003039301220223CDE9082306A90223DD
:101DF0008DED067B039A0A9300F0B6FF0DB05DF8F7
:101E000004FB1A4A0593136B1D4843F02003136328
:101E1000136B9FED097B03F020030593012202233E
:101E2000CDE9082306A903238DED067B059A0A93C5
:101E300000F09AFF74E700BF4000000002000000BD
:101E4000006A0000020000000040000002000000E4
:101E5000001C0000020000000000014000080040DB
:101E6000000C0040000401400044014000380240E2
:101E70000008024000100240000C0240001C02401A
:101E8000001402400000000010B5002496B020228B
:101E900021460EA8CDE90344CDE90744CDE9094424
:101EA000CDE90B440294009406940594019410F03B
:101EB00065FD4348434A8461A723C0E9002344F6F3
:101EC0001F63C0E90243C0E9044402F06FF8002830
:101ED00052D14FF480533A48029302A902F09EFA7D
:101EE000002865D1364802F0EFF800285DD10022C5
:101EF000002333486946CDE9002302F0E5FB0028C2
:101F000050D160204FF47A71CDE906010020002104
:101F1000CDE90801CDE90A01002229480C9206A961
:101F200002F074F900283AD12548042206A902F0EB
:101F30006DF988BB2248082206A902F067F940BB68
:101F40001F480C2206A902F061F9F8B99FED1A7B2F
:101F500000230022CDE90E23CDE9102318480023E9
:101F60000EA98DED127B159302F0EEFB38B91448E3
:101F7000FFF7BEFE16B010BDFFF766F8A9E7FFF742
:101F800063F80F48FFF7B4FE16B010BDFFF75CF81A
:101F9000DCE7FFF759F8D3E7FFF756F8CAE7FFF792
:101FA00053F8C1E7FFF750F8ABE7FFF74DF89EE7AE
:101FB000FFF74AF896E700BF00000000002000008D
:101FC000C80E00200000014000B52F482F4A8FB0F6
:101FD0000023CDE90233CDE90433CDE90033CDE967
:101FE0000633CDE90833CDE90A330C9383600361EE
:101FF00083612923C0E9002344F61F63C36001F015
:10200000D5FF38BB4FF480531F48029302A902F05A
:1020100005FA80BB1C4802F057F848BB0022002399
:1020200019486946CDE9002302F04EFBE8B99FED5F
:10203000147B00231448089306A908228DED067B23
:102040000A9302F0E3F840B90F48FFF751FE0FB0D2
:102050005DF804FBFEF7F8FFD4E7FEF7F5FF0A484A
:10206000FFF746FE0FB05DF804FBFEF7EDFFDEE77D
:10207000FEF7EAFFD2E7FEF7E7FFCBE7AFF300801A
:102080006000000000000000880F002000080040F1
:1020900000B53948394A8FB00023CDE90233CDE984
:1020A0000433CDE90033CDE90633CDE90833CDE97A
:1020B0000A330C938360036183612923C0E9002301
:1020C00044F62063C36001F071FF002834D14FF45F
:1020D00080532948029302A902F0A0F9002842D1B6
:1020E000254801F0F1FF00283AD1002200232248C0
:1020F0006946CDE9002302F0E7FA70BB9FED1C7B37
:1021000000221D48089206A98DED067B0A9202F076
:102110007DF8F8B91848042206A902F077F8B0B99A
:102120001548082206A902F071F840B91248FFF7D5
:10213000DFFD0FB05DF804FBFEF786FFC7E7FEF793
:1021400083FF0D48FFF7D4FD0FB05DF804FBFEF7E9
:102150007BFFE5E7FEF778FFDCE7FEF775FFCDE7ED
:10216000FEF772FFC1E7FEF76FFFB9E7AFF300803C
:102170006000000000000000C80F0020000C0040BC
:1021800010B5002496B0202221460EA8CDE90344C4
:10219000CDE90744CDE90944CDE90B44029400940C
:1021A00006940594019410F0E9FB3948394A84619A
:1021B000A723C0E9002344F61F63C0E90243C0E936
:1021C000044401F0F3FE00283DD14FF48053304821
:1021D000029302A902F022F9002847D12C4801F00D
:1021E00073FF00283FD10022002329486946CDE92A
:1021F000002302F069FA98BB9FED1F7B8DED067BF3
:102200009FED1F7B002222480C9206A98DED087BD2
:102210008DED0A7B01F0FAFFF8B99FED1B7B0023DF
:102220000022CDE90E23CDE91023194800230EA981
:102230008DED127B159302F087FA38B91448FFF739
:1022400057FD16B010BDFEF7FFFEBEE7FEF7FCFE21
:102250000F48FFF74DFD16B010BDFEF7F5FEDCE7A9
:10226000FEF7F2FEC8E7FEF7EFFEBCE7FEF7ECFE76
:10227000B4E700BFAFF3008060000000E803000097
:10228000000000000000000000000000002000002E
:10229000081000200004014010B50B480B4C00232F
:1022A0004FF4E1210C22C0E90041C0E90233C0E94A
:1022B0000432C0E9063302F075FA00B910BDBDE87A
:1022C0001040FEF7C1BE00BF2812002000100140E0
:1022D00010B50B480B4A0C4C0023C0E900424FF4E8
:1022E00080610C22C0E90233C0E90412C0E9063360
:1022F00002F058FA00B910BDBDE81040FEF7A4BEC8
:1023000068120020A08601000048004010B50B486C
:102310000B4C00234FF4E1210C22C0E90041C0E93D
:102320000233C0E90432C0E9063302F03BFA00B9D7
:1023300010BDBDE81040FEF787BE00BFA812002008
:1023400000140140F0B50368A04A8FB00024934206
:10235000CDE90844CDE90A4405460C9408D09C4ACE
:1023600093427ED09B4A934200F0C2800FB0F0BDF2
:10237000994B01945A6C9948994E42F010025A6454
:102380005A6C02F010020192019A02941A6B42F008
:1023900002021A631A6B02F002020292029A03947A
:1023A0001A6B42F001021A631B6B03F001030393E3
:1023B00080220223CDE90823072708A903230B93D2
:1023C0000C97039B00F0D0FC4FF400720223CDE980
:1023D000082384480C970022032308A9CDE90A2387
:1023E00000F0C2FC804A74624FF00063C6E900232B
:1023F0004FF480634022336130464FF48033C6E9A6
:102400000224C6E90544C6E9074300F0F5FD0028AB
:1024100040F0CF80754C76492E634FF00062002368
:10242000C4E9001220464FF480614FF48072C4E981
:102430000233C4E90413C4E90632C4E90833B563BE
:1024400000F0DAFD002840F0B18000226C631146F4
:102450002520A56300F0AAFF252000F0E5FF0FB0BE
:10246000F0BD5D4B04941A6C6248634E42F48022C6
:102470001A641A6C02F480220492049A05941A6B6E
:1024800042F004021A631B6B03F0040305934FF43C
:1024900040620223CDE9082303230B9308A9059B7F
:1024A00007230C9300F060FC544A4FF00063C6E928
:1024B00000234FF48073C6E906434FF480624FF463
:1024C00000333046C6E90244C6E90424C6E90834AC
:1024D00000F092FD00286FD16E63002204212720B6
:1024E000B56300F063FF272000F09EFF0FB0F0BD42
:1024F000394B06945A6C4248424E42F020025A64CC
:102500005A6C02F020020692069A07941A6B42F067
:1025100040021A631B6B03F0400307934FF484429D
:102520000223CDE9082303230B9308A9079B082363
:102530000C9300F019FC344A74624FF02063C6E932
:1025400000234FF480634022336130464FF48033E0
:10255000C6E90224C6E90544C6E9074300F04CFD7C
:1025600080BB2A4C2A492E634FF020620023C4E925
:10257000001220464FF480614FF48072C4E90233A8
:10258000C4E90413C4E90632C4E90833B56300F0B2
:1025900033FDA0B96C63002205214720A56300F03C
:1025A00005FF472000F040FF0FB0F0BDFEF74CFDE7
:1025B0004BE7FEF749FD2DE7FEF746FD8CE7FEF7FA
:1025C00043FDE7E7FEF740FDCBE700BF0010014009
:1025D000004800400014014000380240000402405E
:1025E000A810002000000240B864024048100020FB
:1025F0008864024000080240081100202860024060
:1026000000180240C8110020A06402406811002098
:1026100028640240704700BFFEE700BFFEE700BF2E
:10262000FEE700BFFEE700BF704700BF082000F0D4
:10263000D7BC00BF102000F0D3BC00BF014801F0A0
:10264000C1B900BF600D002008B5202000F0C8FC13
:10265000402000F0C5FCBDE80840802000F0C0BC70
:10266000014801F087BF00BFE812002001480DF0CB
:1026700067BB00BF2812002001480DF061BB00BFFE
:1026800068120020014800F08FBD00BF68110020D3
:10269000014801F097B900BF880D0020014800F003
:1026A00083BD00BF48100020014800F07DBD00BF81
:1026B000C8110020014800F077BD00BFA81000201D
:1026C00001480DF03DBB00BFA812002082B00E4BA8
:1026D00000220092596C41F480415964586C00F416
:1026E0008040009000980192186C40F0805018646F
:1026F0001B6C03F080530193019B0F216FF00100CD
:1027000002B000F053BE00BF0038024030B50146B1
:1027100089B000221C2000F049FE1C2000F084FE3D
:102720000025164B02951A6C154C42F001021A64F2
:102730001B6C03F0010301A903A80293029B00F0A4
:10274000F1FA00F0CFFA0F4AA5604300A2FB032381
:102750009B0C013B4FF0804140F2E7322046C4E938
:1027600003256360216001F021FC10B1012009B054
:1027700030BD204601F096FC09B030BD0038024063
:10278000E812002083DE1B43002800F09C812DE925
:10279000F0410368DD0782B004462FD59E498A6860
:1027A00002F00C02042A00F0ED808A6802F00C02AC
:1027B000082A00F0E3806368B3F5803F00F0EC8006
:1027C000B3F5A02F00F06F81934D2A6822F4803278
:1027D0002A602A6822F480222A60002B40F0E180DF
:1027E00000F068FE064605E000F064FE801B6428E9
:1027F00000F201812B689B03F6D423689F0728D53C
:10280000854A916811F00C0F00F09080916801F0FA
:102810000C01082900F08680E368002B00F00E818F
:102820007E4B7D4E01221A6000F044FE054605E015
:1028300000F040FE401B022800F2DD80336898075C
:10284000F6D53368226923F0F80343EAC203336004
:1028500023681A0751D458072FD56F4A136C13F009
:1028600080537FD000256E4E3368D90540F1B38088
:10287000A368012B00F0C380052B00F02681664E73
:10288000326F22F001023267326F22F004023267A7
:10289000002B40F0B98000F00DFE41F28838074669
:1028A00005E000F007FEC01B404500F2A480336F36
:1028B0009807F6D4002D40F00081A069C8B1564DAC
:1028C000AB6803F00C03082B00F0C980534B0022C7
:1028D00002281A6600F0038100F0ECFD044605E0D2
:1028E00000F0E8FD001B022800F285802B689B01A8
:1028F000F6D4002002B0BDE8F08163690BB3474B0A
:10290000454E0122C3F8802E00F0D4FD054604E0B8
:1029100000F0D0FD401B02286DD8736F9B07F7D5E0
:10292000236898E7526856023FF576AF3A4A126834
:10293000950744D5E268012A41D0012002B0BDE8E4
:10294000F081364A344EC2F8803E00F0B3FD0546B1
:1029500004E000F0AFFD401B02284CD8736F9F07C6
:10296000F7D4DDE70193136C43F080531364136CC9
:1029700003F080530193019B012574E74A685002DC
:102980007FF519AF244A126891037FF537AF62686B
:10299000002A7FF433AFD0E71F4A136843F4803333
:1029A000136000F087FD1C4E054604E000F082FD38
:1029B000401B64281FD833689A03F7D51DE71649D2
:1029C00020690A6822F0F80242EAC0020A601A0787
:1029D0007FF541AF91E7336843F48073336000F0D3
:1029E00069FD07463368DA053FF542AF00F062FD46
:1029F000C01B0228F6D9032002B0BDE8F081064AC8
:102A0000136F43F00103136700F054FD024F0646B5
:102A100041F288380BE000BF003802400000474216
:102A20000070004000F046FD801B4045E3D83B6F3E
:102A30009B07F7D5002D3FF440AF3EE03E4A3F4EA6
:102A4000136000F037FD054604E000F033FD401B45
:102A50000228D0D833689907F7D42368F9E601280B
:102A60003FF448AF6B68E26903F4800191427FF460
:102A700064AF226A03F03F0191427FF45EAF616A66
:102A800047F6C0721A408A427FF457AFA26A03F435
:102A9000403191427FF451AFE06A03F07063181A3D
:102AA00018BF012026E7254B1A6842F480221A60DD
:102AB0001A6842F480321A6073E7204A136C23F0DC
:102AC00080531364F9E6012070471C4B1A6F42F0E3
:102AD00004021A671A6F42F001021A6794E700F0C5
:102AE000E9FC064604E000F0E5FC801B022882D8E1
:102AF0002B689901F7D4D4E90731626A0B4343EAA2
:102B00008213D4E90A21520843EA0163013A0A49CF
:102B100043EA024301226B600A6600F0CBFC074DDA
:102B2000044605E000F0C6FC001B02283FF663AF38
:102B30002B689A01F6D5DCE60000474200380240D7
:102B4000164908B58B6803F00C03042B1BD0082B27
:102B500017D14A684B68496813F4800302F03F02BA
:102B600013D10F48C1F38811A1FB0001FEF74EF805
:102B70000A4B5B68C3F3014301335B00B0FBF3F026
:102B800008BD074808BD074808BD0648C1F38811BD
:102B90000023A1FB0001FEF739F8E9E70038024005
:102BA0000024F400001BB700002800F08780484A8A
:102BB000136803F00F038B422DE9F0410D460446E4
:102BC00009D2CBB21370136803F00F038B4202D00B
:102BD0000120BDE8F0812368980714D5590704D572
:102BE0003C498A6842F4E0528A601A0704D53949A0
:102BF0008A6842F460428A603649A0688A6822F096
:102C0000F00202438A60DF0721D56268012A57D0AB
:102C1000931E012B2F4B1B684DD99907D8D52D4EEC
:102C2000B36823F003031343B36000F043FC41F2A5
:102C30008838074604E000F03DFCC01B404544D8FE
:102C4000B368626803F00C03B3EB820FF3D1204A40
:102C5000136803F00F03AB4206D9EBB2137013688D
:102C600003F00F03AB42B3D123685A0706D51949C5
:102C7000E0688A6822F4E05202438A601B0707D5A5
:102C8000144A2169936823F4604343EAC1039360C3
:102C9000FFF756FF0F4A104C92681049C2F3031217
:102CA0000346A25C0E48D34000680B60FFF72EFD80
:102CB0000020BDE8F0819801B1D489E70120704778
:102CC000044B1B689E03AAD482E7032081E700BF60
:102CD000003C024000380240AC7D010808000020A2
:102CE00004000020044B05499B68054A0868C3F3AB
:102CF0008223D35CD840704700380240080000208F
:102D0000BC7D0108044B05499B68054A0868C3F36C
:102D10004233D35CD840704700380240080000209E
:102D2000BC7D01080E4B0F2202609A6802F003027C
:102D300042609A6802F0F00282609A6802F4E052FF
:102D4000C2609B68DB0810B403F4E053054C0361D8
:102D500023685DF8044B03F00F030B60704700BF5E
:102D600000380240003C02402DE9F04F00220D687F
:102D7000DFF848A285B0134605E00133102B02F1BD
:102D8000020200F0A08001249C4004EA050BAC4341
:102D9000F3D14F6827F0100E0EF1FF34012C40F2F2
:102DA0009580D0F80CE08C684FF0030C0CFA02FC14
:102DB00094402EEA0C0E44EA0E04C4606FEA0C0440
:102DC000D0F800C00CEA040C07F00304944044EA75
:102DD0000C040460FC00D0D500240394DAF84440CD
:102DE0006F4E44F48044CAF84440DAF8444004F496
:102DF00080440394039C23F0030404F1804404F50D
:102E00009C3403F0030ED4F808804FEA8E0E4FF086
:102E10000F0C0CFA0EFCB04228EA0C0C24D006F57C
:102E20008066B04200F092805E4EB04200F0958025
:102E30005D4EB04200F098805C4EB04200F09B8046
:102E40005B4EB04200F09E805A4EB04200F0A1802E
:102E5000DFF86C8140450CBF4FF007084FF00808C1
:102E600008FA0EFE4CEA0E0CC4F808C0524C246856
:102E70006FEA0B0CFE03504E54BF0CEA04044BEAFD
:102E8000040434607468BE034B4E54BF0CEA04045F
:102E90004BEA04047460B468FE02474E54BF0CEA67
:102EA00004044BEA0404B460F4680133BE02424EE9
:102EB00054BF0CEA04044BEA0404102BF46002F142
:102EC00002027FF460AF05B0BDE8F08FD0F808C013
:102ED000CC688E684FF0030909FA02F92CEA090C54
:102EE000944044EA0C048460446824EA0B0CC7F361
:102EF00000149C4044EA0C044460C46806FA02FCD6
:102F000024EA09084CEA080CBEF1020F6FEA090432
:102F1000C0F80CC07FF454AF4FEAD30E00EB8E0E16
:102F200003F00708DEF8206001960E694FEA880872
:102F300006FA08FC4FF00F09019E09FA08F826EA84
:102F400008094CEA090CCEF820C039E74FF0010817
:102F500008FA0EFE4CEA0E0C86E74FF0020808FA5B
:102F60000EFE4CEA0E0C7FE74FF0030808FA0EFE47
:102F70004CEA0E0C78E74FF0040808FA0EFE4CEA13
:102F80000E0C71E74FF0050808FA0EFE4CEA0E0C25
:102F90006AE74FF0060808FA0EFE4CEA0E0C63E7EB
:102FA0000000024000080240000C024000100240F5
:102FB0000014024000180240003C0140003802406A
:102FC000001C024002B9090481617047436931EA7B
:102FD000030308BF09048161704700BF704700BF49
:102FE000044A5169014200D1704708B55061FFF7AA
:102FF000F5FF08BD003C014038B5044600F05AFA20
:10300000002C52D023680222002184F8341084F866
:1030100035201A6822F0010205461A6005E000F02A
:1030200049FA431B052B39D823681A68D107F6D40F
:10303000D4E90120E16802430A43D4E90451A069BC
:103040002A430A43E1691D6802430A433349294080
:10305000256A2A430A43616A042928D01A605A69FA
:1030600022F007021143D8B22D4A59611038A2FB51
:10307000005212092B4923F47F73895CE16523F028
:1030800003035F2888BF04333F228A40A3650020E2
:103090009A600123606584F8353038BD032320220F
:1030A000626584F83530184638BD012038BDD4E952
:1030B0000B5129430A431A605969A26A21F007019A
:1030C000114341F00401002DCDD078B1B0F5005F7F
:1030D00016D0022A03D9032AC5D1EA01C3D5012398
:1030E0004022626584F83530184638BD012A03D085
:1030F00032F00202B7D1F0E7B5F1C07FB3D1EEE70D
:10310000032AB0D801A050F822F000BFDF30000839
:10311000DB300008DF300008F93000083F8010F095
:10312000ABAAAAAAA47D010870B490F83440856DBA
:10313000012C35D090F835404FF0010C644580F8F3
:1031400034C005D0002380F8343070BC02207047B2
:10315000022680F83560046800264665266826F455
:103160008026266063608368402B0EBFA260A1604A
:10317000E260C26D08BFE1603F239340AB6023680B
:10318000026C43F0160323601AB1236843F008036E
:103190002360236843F001030020236070BC704764
:1031A000022070BC704700BF2DE9F04182B0744A24
:1031B000866D156800230193C36D346808229A4018
:1031C0002242804604D001680F68780700F18A80A7
:1031D00001229A40224204D0D8F800104969090619
:1031E00078D404229A40224204D0D8F8001009680A
:1031F0008F0767D410229A40224204D0D8F80010DA
:103200000F68380749D420229A40224217D0D8F8B4
:1032100000100C68E00612D5B26098F83520052A37
:1032200073D00B6813F4802F0B6800F090801903A3
:1032300040F19B80D8F83C300BB140469847D8F815
:1032400054303BB3D8F85430DA071BD5D8F80020F7
:103250004C49052388F835301368A1FB051523F088
:103260000103AD0A136002E01368DB0704D5019B7C
:103270000133AB420193F7D90022012388F83420AF
:1032800088F83530D8F84C3023B1404602B0BDE85C
:10329000F041184702B0BDE8F081B2600A6812F44C
:1032A000802F0A682AD1D70503D40A6822F00802C1
:1032B0000A60D8F84020002AA5D040469047D8F8A8
:1032C0005C30A0E7B260D8F8542042F00402C8F89D
:1032D00054208FE7B260D8F8542042F00202C8F8B8
:1032E00054207EE70F6827F004070F60B260D8F81B
:1032F000542042F00102C8F8542069E71203D8D5DF
:10330000D8F84820002AD8D17DE70A6822F01602B2
:103310000A604A6922F080024A61D8F8402052B31C
:103320000A6822F008020A603F2202FA03F3D8F882
:103330005010B3600022012388F8342088F835301B
:103340000029A7D0404602B0BDE8F041084713F479
:1033500080737FF46FAF0A6822F010020A600122C6
:1033600088F8343088F8352064E7D8F84430002BEA
:103370007FF463AF63E7D8F84820002AD0D1D3E7C1
:1033800008000020B5814E1B0749CA6803024FF6AA
:10339000FF0003F4E0630240134343F0BF6343F4D0
:1033A0000033CB60704700BF00ED00E01C4BDB68D2
:1033B000C3F3022300B5C3F1070EBEF1040F03F1FE
:1033C000040C28BF4FF0040EBCF1060F1BD9033BC1
:1033D0004FF0FF3C0CFA03FC22EA0C024FF0FF3CDA
:1033E0000CFA0EFC21EA0C019940002841EA020186
:1033F0000CDB00F16040090100F56140C9B280F8C2
:1034000000135DF804FB00221346E7E7054B00F0CC
:103410000F0009010344C9B219765DF804FB00BF2F
:1034200000ED00E0FCEC00E0002808DB4109044A64
:1034300000F01F00012303FA00F042F8210070475A
:1034400000E100E0BFF34F8F0549064BCA6802F464
:10345000E0621343CB60BFF34F8F00BFFDE700BFB7
:1034600000ED00E00400FA0508B50B4B1A6842F4C1
:1034700000721A601A6842F480621A601A6842F494
:1034800080721A600320FFF77FFF0020FFF73EF9EC
:10349000FFF71CF9002008BD003C0240034A044B22
:1034A00011681B780B441360704700BF281300207D
:1034B00000000020014B1868704700BF281300204F
:1034C00038B50446FFF7F6FF631C054602D0044BEF
:1034D0001B781C44FFF7EEFF431BA342FAD338BD11
:1034E0000000002000287BD038B590F8203004463A
:1034F000002B72D02268136823F002031360FFF7D9
:10350000D9FF054604E0FFF7D5FF431B0A2B5BD824
:1035100023685A689107F6D41A6842F001021A60CB
:10352000FFF7C8FF054604E0FFF7C4FF401B0A2869
:103530004AD823685A68D207F6D5227E012A1A682B
:103540000CBF42F0800222F080021A60627E012AE3
:103550001A680CBF42F0400222F040021A60A27EBC
:10356000012A1A680CBF42F0200222F020021A60E1
:10357000E27E012A1A680CBF22F0100242F010020B
:103580001A60227F012A1A680CBF42F0080222F05A
:1035900008021A60627F012A1A680CBF42F0040216
:1035A00022F004021A60D4E90220216902430A438E
:1035B00060696168024301390A4300200121DA6130
:1035C000606284F8201038BD636A052243F400333A
:1035D000636284F82020012038BDFEF73FF889E7B8
:1035E0000120704790F82020013A012A06D9426A4A
:1035F000034642F4802201205A627047414BD3F8BF
:10360000002230B401242243C3F80022D3F8002260
:1036100022F47C52C3F80022D3F80022486A42EA1E
:103620000022C3F800224A6902F01F0004FA00F0E9
:10363000D3F81C4224EA0004C3F81C42CD69C443F9
:10364000002D45D1D3F80C522540C3F80C52D200BE
:10365000CD688B8802F1804202F5C84243EA0543F7
:10366000C2F840328D680B8843EA0543C2F8443201
:103670008B69244A33BBD2F804322340C2F80432A7
:103680000B69C3B91F4BD3F814221440C3F814427A
:103690000B6A012B05D11B4AD2F81C321843C2F821
:1036A0001C02184AD2F8003223F00103002030BC7B
:1036B000C2F800327047134AD2F814320343C2F8FA
:1036C0001432E5E7D2F804320343C2F80432D7E7F4
:1036D000012DCDD1D3F80C520543C3F80C52D200C2
:1036E0000D688B8802F1804202F5C84243EA054327
:1036F000C2F840328D688B8943EA0543C2F84432F0
:10370000B6E700BF0064004070B590F82030012B90
:10371000044606D0436A012643F400234362304640
:1037200070BD0268DEB2022380F82030136823F0F7
:1037300001031360FFF7BEFE054604E0FFF7BAFE83
:10374000431B0A2B08D823685B6813F00103F5D1EB
:103750001E466362304670BD636A052243F400333F
:10376000636284F82020304670BD00BF30B48446C8
:1037700090F82000DCF8005001380128AC6835D8FA
:1037800014F0E05F3BD0C4F30164032C49D0012066
:10379000A04018608B68002B3AD0C8680343486883
:1037A00043EAC00304F1180000012B5005EB041C90
:1037B0000B69CCF88431097D01294FEA041305D146
:1037C000DCF8841141F48071CCF884112B445168E9
:1037D000C3F88C111268C3F88821DCF8803143F0FB
:1037E0000103002030BCCCF880317047DCF8243075
:1037F00043F48023012030BCCCF824307047DCF83F
:10380000243043F40013012030BCCCF8243070473E
:10381000CB68086843EA405004F118031B01E850E4
:10382000C4E7DCF8243043F40003012030BCCCF8BA
:103830002430704790F82030013B012B01D9002043
:103840007047036898689A689B681201C0F38060AB
:1038500048BF0130DB00F3D50130704770B590F8F8
:1038600020E00EF1FF3EBEF1010F84466DD80068E6
:1038700051B9C468A5070AD1DCF8243043F4001319
:103880000120CCF8243070BD0469A407F4D000EB0B
:10389000011E0C01DEF8B05105F004059560002D05
:1038A0005AD0DEF8B051ED085560DEF8B05105F0A1
:1038B0000205D560DEF8B451DEF8B46105F00F05FD
:1038C00015612044DEF8B451C6F3072696612D0C2D
:1038D000D0F8B86155611E70DCF800202244D2F89F
:1038E000B821120A5A70DCF800202244D2F8B8211C
:1038F000120C9A70DCF800202244D2F8B821120E83
:10390000DA70DCF800202244D2F8BC211A71DCF80D
:1039100000202244D2F8BC21120A5A71DCF800209F
:103920002244D2F8BC21120C9A71DCF80020224407
:10393000D2F8BC21120EDA71DCF8002089B9D36804
:1039400043F020030846D36070BD436A43F48023EC
:103950000120CCF8243070BDDEF8B0516D0D15603B
:10396000A3E7136943F020030020136170BD00BF7B
:1039700090F82020013A012A034605D9426A42F410
:10398000802201205A62704702685369194300205F
:1039900051617047704700BF704700BF704700BF5C
:1039A000704700BF704700BF704700BF704700BF3F
:1039B000704700BF704700BF704700BF704700BF2F
:1039C000704700BF2DE9F84F03685C69D3F80480A5
:1039D0009F68D3F80CB0D3F810A0D3F8189014F067
:1039E0000106054625D017F0010640F08F804FF400
:1039F00000524FF48041F8050DD52B684FF48070CC
:103A00009860BB0500F1BE80780500F1E4803B05BD
:103A100040F1F0800E46F8030BD52B684FF480324E
:103A2000B9039A6000F1BA807A0340F1CF8046F47E
:103A30000046270702D51BF0100F61D1600703D5A0
:103A40001BF0080F40F08C80A10704D52B68DB68C1
:103A50009A0740F08C80630602D51AF0100F49D106
:103A6000A70602D51AF0080F73D1E00603D52B681C
:103A70001B69990762D1A20302D518F0100F61D11A
:103A8000E30302D518F0080F75D1270405D518F007
:103A9000040F06D12B6804225A60002E46D1BDE8DF
:103AA000F88FE00504D519F0010F18BF46F00106A4
:103AB000A10504D519F0020F18BF46F002066205F1
:103AC00004D519F0040F18BF46F004062305E1D50C
:103AD00019F07009DED0B9F1400F00F09A8061D87A
:103AE000B9F1200F00F08380B9F1300F68D146F0B2
:103AF00020065FE02B68102246F480661A61AFE76B
:103B00002B68102246F40076DA6097E701229A606B
:103B1000BB073BD47E0760D417F008066ED04FF485
:103B200040524FF4A0414FF4805664E76B6A1E4345
:103B300028466E62FFF744FFBDE8F88F2846FFF77E
:103B400037FF98E72B6810225A602846FFF734FFAA
:103B500096E72B6808221A612846FFF72BFF84E7B7
:103B60002B680822DA602846FFF720FF6CE728461A
:103B70000BF04AFC6FE72B6808225A602846FFF7D3
:103B80001DFF82E72846FFF707FF44E7FFF702FF24
:103B900000264FF400524FF480412CE72846FFF7EF
:103BA000FDFE46E7B9F1500F1ED0B9F1600F08BF16
:103BB00046F480762B689A6922F070029A616AE76F
:103BC000B9F1100FF6D146F00806F3E73B031CD518
:103BD00046F480362DE716461DE74FF420524FF489
:103BE00090414FF4006606E746F08006E2E746F0B3
:103BF0001006DFE72846FFF7D5FE0CE7FFF7D0FEFB
:103C00004FF400524FF48041F5E62846FFF7CCFE12
:103C10000FE746F04006CDE72E4B70B51B682E4DE2
:103C20000446A5FB03035B0D4FF47A7000FB03F31E
:103C3000606882B0B0F5827F019307D10CE0019BF0
:103C40002268013B019393681B0602D5019B002B60
:103C5000F5D1002002B070BD0D4616466B1C2068E1
:103C600003D183681906FCD4F3E783681A06F0D5FC
:103C7000FFF720FC801B8542F0D8D4E900315A6858
:103C8000B1F5827F22F0E0025A6017D0A26AB2F545
:103C9000005F07D11A6822F400521A601A6842F4D1
:103CA00000521A60012384F85130636D002243F002
:103CB000200384F8502063650320CBE7A268B2F5A7
:103CC000004F02D0B2F5806FE0D11A6822F04002B6
:103CD0001A60DBE708000020819F5E1600283BD0B9
:103CE00038B590F8512000230446836202F0FF01AA
:103CF00062B31846D4E90131E26825680B431343E7
:103D0000D4E904120B431343E269022184F85110F1
:103D10001343226A29681343A26921F040012960F4
:103D200002F4007C616A120C43EA0C0302F0040204
:103D300003430A432B606A60EB69002023F40063AD
:103D40000122EB61606584F8512038BD80F8501085
:103D5000FDF78CFDA06ACDE7012070472DE9F04307
:103D6000044690F8500083B001280A9D00F083803B
:103D70001F46012384F8503089469046FFF79AFB8E
:103D8000064694F8510063680128C1B211D0B3F51A
:103D9000827F09D002200122002384F8512084F878
:103DA000503003B0BDE8F083A268002AF2D10429A4
:103DB000F0D1B9F1000F62D0B8F1000F5FD0002F41
:103DC0005DD094F85120C4F83880042A1CBF052225
:103DD00084F8512000226265C4E910222268E78736
:103DE000E7861168A7874906C4F83090A78603D4F0
:103DF000116841F040011160E168B1F5006F4ED0EB
:103E0000002B3ED0012F3CD00127E38E9BB21BB983
:103E1000E38F9BB2002B7FD02268936899070FD560
:103E2000E38E9BB263B15FB1236B1B781373E38E98
:103E3000226B013B01329BB222632268E38600279A
:103E4000936813F001030DD0E18F89B251B11F4681
:103E5000A36BD2681A70A36B0133A363E38F013B9A
:103E60009BB2E387FFF726FB801BA84214D36B1C91
:103E7000CBD003208FE7022003B0BDE8F083012000
:103E800089E799F800301373E38E226B013B01320E
:103E90009BB22263E386B7E7002DB6D1E9E7002B9A
:103EA0004DD1494631F8023BD360E38E2163013B9B
:103EB0009BB2E3866A1C4FF0010725D042E02268DE
:103EC00093689B070DD5E38E9BB253B14FB1216B25
:103ED00031F8023BD360E38E2163013B9BB20027A4
:103EE000E386936813F001030CD0E18F89B249B1E6
:103EF000D168A26B22F8021B1F46E38FA263013B2D
:103F00009BB2E387FFF7D6FAE38E9BB2002BD6D1A4
:103F1000E38F9BB2002BD2D1324629462046FFF7D1
:103F20007BFE00283ED1A368002B7FF434AF2368CA
:103F30000190DA6801929B680193019B2BE7012FA6
:103F4000B8D1AEE7E38E9BB21BB9E38F9BB2002BD7
:103F5000E2D02268936898070DD5E38E9BB253B1E7
:103F60004FB1236B33F8021BD1602363E38E013B17
:103F70009BB20027E386936813F001030CD0E18F16
:103F800089B249B1D168A26B22F8021B1F46E38FA8
:103F9000A263013B9BB2E387FFF78CFA801BA84228
:103FA000D0D366E7202363650120F4E6002874D0AF
:103FB00010B590F83D30044603F0FF02002B67D0A7
:103FC00022683749022384F83D308A4213684BD077
:103FD000B2F1804F31D0A1F57C418A422DD001F55C
:103FE00080618A4229D001F580618A4225D001F59D
:103FF00078418A4238D001F570518A4221D001F5CA
:1040000080618A421DD001F580618A4219D0A1F5F4
:1040100098318A4215D001F580618A4211D001F5AC
:1040200080618A420DD0A069E16823F080030343D8
:1040300013606368D162936210E0A16823F070039B
:104040000B432069A16923F44073034323F08003E9
:10405000E0680B4361681360D06291620123536191
:1040600084F83D30002010BDA068216923F0700362
:10407000034323F440730B43A16923F080030B43F4
:104080001360E368D3626368936263691363E5E76F
:1040900080F83C20FDF7B8FD92E70120704700BF93
:1040A000000001400368DA6842F00102DA609A68B1
:1040B00002F00702062A03D01A6842F001021A60D1
:1040C00000207047704700BF002874D010B590F8EA
:1040D0003D30044603F0FF02002B67D022683749C9
:1040E000022384F83D308A4213684BD0B2F1804FEE
:1040F00031D0A1F57C418A422DD001F580618A4200
:1041000029D001F580618A4225D001F578418A42A3
:1041100038D001F570518A4221D001F580618A4280
:104120001DD001F580618A4219D0A1F598318A42EB
:1041300015D001F580618A4211D001F580618A4273
:104140000DD0A069E16823F0800303431360636826
:10415000D162936210E0A16823F070030B432069E1
:10416000A16923F44073034323F08003E0680B4309
:1041700061681360D06291620123536184F83D301D
:10418000002010BDA068216923F07003034323F4CD
:1041900040730B43A16923F080030B431360E36872
:1041A000D3626368936263691363E5E780F83C2038
:1041B000FFF788FF92E70120704700BF0000014031
:1041C00003680122186A01F01F0102FA01F120EAD6
:1041D00001001862186A0C4A0143934219620ED01A
:1041E00002F5806293420AD09A6802F00702062A1A
:1041F00003D01A6842F001021A60002070475A6C1E
:1042000042F400425A64EFE70000014090F83C306D
:10421000012B00F0CA804FF0010C0223F0B480F8AB
:104220003CC080F83D300C2A32D8DFE802F007317C
:10423000313168313131943131313A0003680E68DF
:104240001A6A22F001021A621A6A5D689C6924F0F7
:10425000730434438E6822F0020232436E4EB3423E
:1042600000F0A58006F58066B34200F0A0805D6096
:104270009C614C685C631A629C690D6944F0080497
:104280009C61996921F0040199619A692A439A61B4
:104290000023012280F83D2080F83C30F0BC184615
:1042A000704703680E681A6A22F480521A621A6A0A
:1042B0005D68DC6924F4E64444EA06248E6822F44E
:1042C000005242EA0632544EB34200F08F8006F5A7
:1042D0008066B34200F08A805D60DC614C681C64DB
:1042E0001A62DC690D6944F40064DC61D96921F467
:1042F0008061D961DA6942EA0522DA61C8E70368B8
:104300000E681A6A22F010021A621A6A5D689C69C5
:1043100024F4E64444EA06248E6822F0200242EAAD
:1043200006123D4EB34251D006F58066B3424DD0E1
:104330005D609C614C689C631A629C690D6944F4E1
:1043400000649C61996921F4806199619A6942EAEB
:1043500005229A619CE703680E681A6A22F480724B
:104360001A621A6A5D68DC6924F0730434438E684B
:1043700022F4007242EA0622274EB3423CD006F5F0
:104380008066B34238D05D60DC614C68DC631A62E1
:10439000DC690D6944F00804DC61D96921F004018D
:1043A000D961DA692A43DA6172E702207047CE6880
:1043B00022F008023243D1E9057625F4407547EA38
:1043C000060C22F004024CEA050550E7CE6822F004
:1043D000800242EA0612D1E9057625F4406547EAF3
:1043E000060C22F0400245EA8C05A1E74E6925F44F
:1043F000804545EA86156FE7CE6822F4006242EAFE
:104400000622D1E9057625F4405547EA060C22F448
:10441000806245EA0C15B6E70000014090F83C3098
:10442000012B74D030B402680124022380F83C4090
:1044300080F83D3094680B6824F47F4424F07704BE
:10444000602B946065D031D8402B48D021D9502BB7
:1044500016D14C68CD68116A21F00A012143146A13
:1044600024F001041462936923F0F00343EA051376
:1044700093611162936823F0700343F057039360D4
:104480000023012280F83D2080F83C3030BC1846E3
:104490007047202B02D01ED9302BF1D1916821F02A
:1044A00070010B4343F007039360E9E7702B49D099
:1044B000B3F5005FE4D1D1E9015394682B43CD6893
:1044C00024F47F4143EA05230B439360936843F44C
:1044D00080439360D4E733F01001D1D1DEE74C681C
:1044E000CD68116A21F00A012143146A24F0010405
:1044F0001462936923F0F00343EA05139361116298
:10450000936823F0700343F047039360B8E70220F9
:104510007047146ACB684D6824F0100414629169E6
:1045200021F4704141EA0331136A916123F0A00341
:1045300043EA05131362936823F0700343F06703A3
:1045400093609DE7D1E9015394682B43CD6824F42F
:104550007F4143EA05230B439360936843F077035D
:1045600093608DE7704700BF704700BF704700BF82
:10457000704700BF03681A69910710B5044602D559
:10458000DA6892075FD41A69500702D5DA685107D2
:1045900046D41A69120702D5DA6810072ED41A69B0
:1045A000D20602D5DA68D00618D41A69D10702D526
:1045B000DA68D2075DD41A69100602D5DA681106E6
:1045C0005FD41A69520602D5DA68500661D41A69B6
:1045D000910602D5DA68920643D410BD6FF010013F
:1045E000082219612277DB6913F4407F204664D0EA
:1045F000FFF7BAFF002223682277D6E76FF00801A1
:10460000042219612277DB699907204652D1FFF70E
:10461000A9FF2046FFF7AAFF002223682277BEE702
:104620006FF004010222196122779B6913F4407F25
:1046300020463CD1FFF796FF2046FFF797FF002268
:1046400023682277A5E76FF0020101221961027742
:104650009B699B0725D0FFF787FF002223682277FD
:1046600091E76FF0200220461A61BDE8104000F08B
:1046700095B86FF001021A612046FCF7DDFC236853
:1046800099E76FF080021A61204600F089F82368EC
:1046900097E76FF040021A612046FFF769FF236831
:1046A00095E7FFF75FFF2046FFF760FFD5E7FFF7CD
:1046B0005BFFC4E7FFF758FFAEE7FFF753FF204665
:1046C000FFF754FF96E700BF90F83C30012B37D03E
:1046D0000368022230B480F83D205A680D689C6857
:1046E00022F070022A435A60164A93421AD0B3F15C
:1046F000804F17D0A2F57C42934213D002F580621E
:1047000093420FD002F5806293420BD002F57842BB
:10471000934207D002F57052934203D0A2F594322F
:10472000934204D14A6824F0800414439C6000231F
:10473000012280F83D2080F83C3030BC184670479C
:10474000022070470000014090F83C30012B23D03C
:1047500010B4D1E9024323F440730246234348686E
:104760000C6823F48063034323F400630869234344
:1047700023F4805303434869CC6923F40053034373
:1047800023F48043106800212343436482F83C10E3
:1047900008465DF8044B704702207047704700BF21
:1047A000704700BF002800F0AF8038B590F839306E
:1047B000044603F0FF02002B00F09E802368E068AF
:1047C0002569242284F83920DA6822F40052DA605C
:1047D0001969A26821F4405101431961D968E0695F
:1047E0002A43656921F416412A4321F00C01024352
:1047F0000A43DA605A69A16922F440720A43B0F5AB
:10480000004F5A61414A4FD0934232D002F5806244
:1048100093422ED0FEF766FA63683D4D19219A0047
:10482000A0FB01019B0FFCF7F1F9A5FB0031490941
:10483000642202FB1102120132322368A5FB02023C
:10484000090101EB52129A601A6922F490421A612E
:104850005A6922F02A025A61DA680025202142F4BE
:104860000052DA60E56384F8391084F83A1028467B
:1048700038BDFEF747FA636819219A00A0FB0101D1
:104880009B0FFCF7C3F92249A1FB003252096425B2
:1048900005FB1200000132302368A1FB0010120159
:1048A00002EB50109860CFE793422AD002F5806265
:1048B000934226D0FEF716FA6268192192184FF03B
:1048C00000035B41A0FB0101FCF7A0F9104BA3FB27
:1048D00000214D09642202FB1502D2003232A3FBF3
:1048E0000232C2F342111209236801EB051102F4EE
:1048F000F8720A449A60A7E780F83820FDF722FD95
:104900005CE7FEF7FFF9D7E7012070470010014090
:104910001F85EB51F8B5044690F8390020282DD1B9
:1049200051B34AB394F83800012827D00120E2841B
:1049300084F83800A284206BDFF84CC0104F114E71
:1049400021621346226800254FF0210EE5630432F0
:1049500084F839E0C0E90FC7C0E91365FEF7E4FB4E
:1049600023686FF040021A6084F838505A6942F0A8
:10497000800228465A61F8BD0120F8BD0220F8BD2A
:10498000C1490008D149000891490008704700BF9B
:1049900008B50368806B1B6813F480730AD1026842
:1049A000C384536923F080035361D36843F0400309
:1049B000D36008BDFFF7EAFF08BD00BF704700BF26
:1049C00008B5806BFFF7FAFF08BD00BF704700BF56
:1049D00008B5806B0368596990F83920212A0BD0FB
:1049E000596990F83A20222A16D0C36B43F010037D
:1049F000C363FFF7EBFF08BD0906F1D50022C284AF
:104A0000DA68202122F0C002DA6080F83910596992
:104A100090F83A20222AE8D14A06E6D50022C2853B
:104A2000DA6822F49072DA605A69202122F00102D9
:104A30005A6180F83A10D8E790F8392090F83A0097
:104A400010437047054BD3F888204FF0006142F4C3
:104A50007002C3F888209960704700BF00ED00E045
:104A600000F108034FF0FF310022C0E90131C0E935
:104A700003330260704700BF00230361704700BF2B
:104A800043689A688A60026810B49C684B6001327F
:104A9000616099605DF8044B08610260704700BF77
:104AA00030B40D686B1C10D000F108031C465B6825
:104AB0001A68AA42FAD902684B60013299608C6088
:104AC0006160086130BC0260704704696368F2E7A6
:104AD000036910B4D0E901125C688A6084425160B5
:104AE00008BF5A601A685DF8044B0021013A016161
:104AF0001A601868704700BF70B50446006CA66B5A
:104B000020B925684DB30136A66370BD154602462F
:104B10007DB960680DF00AFF6368226C1344A268D7
:104B20006360934224BF2368636001362846A6630E
:104B300070BDE0680DF0FAFE226CE36851429B1AEA
:104B40002268E360934202D2A3680B44E360022D23
:104B500008D001360020A66370BDA06801F004FAF9
:104B6000A560D0E7012E38BF01260020CCE700BFAA
:104B700040B94FF0500383F31188BFF36F8FBFF339
:104B80004F8FFEE710B51C4682B07BB102B3B1B1C6
:104B900048230193019B482B26D04FF0500383F309
:104BA0001188BFF36F8FBFF34F8FFEE74FF05003B5
:104BB00083F31188BFF36F8FBFF34F8FFEE74FF082
:104BC000500383F31188BFF36F8FBFF34F8FFEE75E
:104BD00099BB48220192019A482ADED1012284F829
:104BE0004620019B224604E04FF0010C019B84F813
:104BF00046C0C4E90F01226001F0B4FDD4E90F12F0
:104C00002368636002FB01F18A1A19441A44A16007
:104C10000020FF21A063E26084F8441004F110003A
:104C200084F84510FFF71CFF04F12400FFF718FF7C
:104C300001F0BAFD204602B010BD4FF0500383F3DF
:104C40001188BFF36F8FBFF34F8FFEE72DE9F0435D
:104C500085B00192002800F0A48088461F460446D3
:104C6000002900F09180022F0BD1E36B012B08D0BB
:104C70004FF0500383F31188BFF36F8FBFF34F8F53
:104C8000FEE701F061F90546002800F09380002559
:104C900004F1240601F066FDA26BE36B9A42C0F0BA
:104CA000EF80022F00F0EC800198002800F00181D5
:104CB000002D00F0E18001F077FD00F007FE01F02B
:104CC00051FD94F84430FF2B04BF002384F8443096
:104CD00094F84530FF2B04BF002384F8453001F0E1
:104CE00063FD01A902A801F0D5F8002840F0E68094
:104CF00001F038FDA26BE36B9A4268D001F054FDDD
:104D000001F030FD94F8452055B2002D04DC11E08F
:104D10006A1ED3B255B26BB1636A304653B101F02B
:104D200065F80028F4D001F009F96A1ED3B255B233
:104D3000002BF1D1FF2384F8453001F035FD01F05F
:104D400011FD94F8442055B2002D14DD04F1100932
:104D500003E06A1ED3B255B26BB12369484653B122
:104D600001F044F80028F4D001F0E8F86A1ED3B24C
:104D700055B2002BF1D1FF2384F8443001F014FD2B
:104D800000F0FEFE012585E7036C002B3FF46BAFBE
:104D90004FF0500383F31188BFF36F8FBFF34F8F32
:104DA000FEE74FF0500383F31188BFF36F8FBFF31B
:104DB0004F8FFEE7019B002B3FF46AAF4FF050038B
:104DC00083F31188BFF36F8FBFF34F8FFEE704F1BA
:104DD000100901F0E9FC0199484600F049FF01F093
:104DE000C1FC94F845305DB2002D04DC11E06B1E6F
:104DF000DAB25DB26AB1636A304653B100F0F6FFD1
:104E00000028F4D001F09AF86B1EDAB25DB2002AE5
:104E1000F1D1FF2384F8453001F0C6FC01F0A2FC7B
:104E200094F844305DB2002D04DC11E06B1EDAB260
:104E30005DB26AB12369484653B100F0D7FF00283C
:104E4000F4D001F07BF86B1EDAB25DB2002AF1D12A
:104E5000FF2384F8443001F0A7FC00F091FE002805
:104E600090D14FF0E0234FF08052C3F8042DBFF3F0
:104E70004F8FBFF36F8F85E702A800F0FFFF1AE79F
:104E80003A4641462046FFF737FE636A002B53D16E
:104E900048B14FF0E0234FF08052C3F8042DBFF328
:104EA0004F8FBFF36F8F01F07FFC012005B0BDE88D
:104EB000F083009001F078FC0098F7E701F052FCD5
:104EC00094F845305DB2002D10DD04F1240603E0B6
:104ED0006B1EDAB25DB24AB1636A304633B100F09C
:104EE00085FF0028F4D001F029F8F1E7FF2384F8CA
:104EF000453001F059FC01F035FC94F844305DB2C6
:104F0000002D10DD04F1100603E06B1EDAB25DB275
:104F10004AB12369304633B100F068FF0028F4D06D
:104F200001F00CF8F1E7FF2384F8443001F03CFC79
:104F300000F026FE0020B9E704F1240000F056FF3F
:104F40000028B0D0A5E700BF2DE9F04385B001925D
:104F5000002800F05F810F460446002900F094808D
:104F600000F0F2FF002800F09C8001F0FBFBA56B35
:104F7000002D72D1019B002B00F0F18002A800F0FF
:104F80007DFFA84604F1240601F00EFC00F09EFC13
:104F900001F0E8FB94F84430FF2B08BF84F844800C
:104FA00094F84530FF2B08BF84F8458001F0FCFBE6
:104FB00001A902A800F06EFF00287FD101F0D2FB0A
:104FC000A36B002B00F0D18001F0EEFB01F0CAFBD7
:104FD00094F845305DB2002D04DC11E06B1EDAB2AE
:104FE0005DB26AB1636A304653B100F0FFFE00283B
:104FF000F4D000F0A3FF6B1EDAB25DB2002AF1D14B
:10500000FF2384F8453001F0CFFB01F0ABFB94F8AF
:1050100044305DB2002D14DD04F1100903E06B1E75
:10502000DAB25DB26AB12369484653B100F0DEFEE0
:105030000028F4D000F082FF6B1EDAB25DB2002AC5
:10504000F1D1FF2384F8443001F0AEFB00F098FD6D
:1050500001F088FBA56B002D7DD0226C52B1E16878
:10506000A36811449942E16024BF2168E160384699
:105070000DF05CFC013DA5632369002B40F0D3805B
:1050800001F092FB01206DE0036C002B3FF468AF50
:105090004FF0500383F31188BFF36F8FBFF34F8F2F
:1050A000FEE7019B002B3FF460AF4FF0500383F30A
:1050B0001188BFF36F8FBFF34F8FFEE701F052FBF4
:1050C00094F845305DB2002D04DC11E06B1EDAB2BD
:1050D0005DB26AB1636A304653B100F087FE0028C2
:1050E000F4D000F02BFF6B1EDAB25DB2002AF1D1D2
:1050F000FF2384F8453001F057FB01F033FB94F8AF
:1051000044305DB2002D14DD04F1100903E06B1E84
:10511000DAB25DB26AB12369484653B100F066FE67
:105120000028F4D000F00AFF6B1EDAB25DB2002A4C
:10513000F1D1FF2384F8443001F036FB00F020FD6C
:1051400001F010FBA36B53B101F02EFB01F00AFB41
:10515000A56B002D81D1019B002B7FF415AF01F0D1
:1051600023FB002005B0BDE8F08301F01DFB019991
:10517000304600F07DFD01F0F5FA94F845305DB25F
:10518000002D04DC11E06B1EDAB25DB26AB1636A15
:10519000304653B100F02AFE0028F4D000F0CEFED5
:1051A0006B1EDAB25DB2002AF1D1FF2384F84530DC
:1051B00001F0FAFA01F0D6FA94F844305DB2002D0D
:1051C00014DD04F1100903E06B1EDAB25DB26AB1BE
:1051D0002369484653B100F009FE0028F4D000F0DE
:1051E000ADFE6B1EDAB25DB2002AF1D1FF2384F866
:1051F000443001F0D9FA00F0C3FC0028A6D14FF0EA
:10520000E0234FF08052C3F8042DBFF34F8FBFF35C
:105210006F8F9BE74FF0500383F31188BFF36F8FBD
:10522000BFF34F8FFEE704F1100000F0DFFD002810
:105230003FF426AF4FF0E0234FF08052C3F8042D27
:10524000BFF34F8FBFF36F8F1AE700BF124B1A687F
:105250007AB19A6862B11A6992B19A6992B11A6A7E
:1052600092B19A6A92B11A6B92B19A6B92B17047ED
:10527000012203EBC20C43F83210CCF80400704753
:105280000222F6E70322F4E70422F2E70522F0E720
:105290000622EEE70722ECE73013002070B5054642
:1052A0000E46144601F05EFA95F84430FF2B04BF19
:1052B000002385F8443095F84530FF2B04BF0023C8
:1052C00085F8453001F070FAAB6B002B43D001F04C
:1052D00049FA95F845305CB2002C14DD05F124063E
:1052E00003E0631EDAB25CB26AB16B6A304653B156
:1052F00000F07CFD0028F4D000F020FE631EDAB23E
:105300005CB2002AF1D1FF2385F8453001F04CFA58
:1053100001F028FA95F844305CB2002C14DD05F158
:10532000100603E0631EDAB25CB26AB12B69304644
:1053300053B100F05BFD0028F4D000F0FFFD631EC8
:10534000DAB25CB2002AF1D1FF2385F84430BDE81F
:10535000704001F029BA2246314605F1240000F0E0
:10536000DBFCB4E72DE9F843044601F0FBF9344ACD
:10537000344D1368013313602B68002B32D0324E4A
:1053800033683BB3E36A314F314832490268013236
:105390000260086801229A40024303EB83030A601B
:1053A00007EB8300211DFFF76BFB01F0FDF933686C
:1053B00073B12A68E36AD26A9A4209D24FF0E023B5
:1053C0004FF08052C3F8042DBFF34F8FBFF36F8FA0
:1053D000BDE8F8832A68E36AD26A1C4F9A4298BFF4
:1053E0002C60D1E72C601368012B03D0E36A174FC0
:1053F000154EC9E7154F3E4607F18C083046143666
:10540000FFF72EFBB045F9D1DFF86090DFF8608040
:105410000D4E4846FFF724FB4046FFF721FB0E48A0
:10542000FFF71EFB0D48FFF71BFB0D48FFF718FBAE
:105430000C4BC3F800900C4BC3F80080E36AA3E761
:105440000814002070130020641400207C13002036
:10545000181400201C140020501400207C1400207C
:1054600068140020741300207813002020140020FA
:1054700034140020F8B51D4E1D4B05461C683368DA
:1054800030680022043083F852200F46FFF720FBDB
:1054900048B933681749DA6A012303FA02F20B6844
:1054A00023EA02030B606B1C17D0336864195C603D
:1054B00007D3114B18683168BDE8F8400431FFF795
:1054C000EFBA0E4B186831680431FFF7E9FA0C4B5C
:1054D0001A68A24288BF1C60F8BD002FE5D0316871
:1054E0000848BDE8F8400431FFF7CABA701300203D
:1054F000901400201C140020781300207413002046
:1055000048140020681400202DE9F0470A9CDDF8BB
:1055100024804FEA82094A4606460D46206BA521A3
:105520001F460DF02BFA236BA9F10409994429F0C9
:105530000709002D7FD02B7884F834302B78002B8E
:105540004DD06B7884F835306B78002B47D0AB7832
:1055500084F83630AB78002B41D0EB7884F83730C4
:10556000EB78002B3BD02B7984F838302B79002B4B
:1055700035D06B7984F839306B79002B2FD0AB792B
:1055800084F83A30AB7953B3EB7984F83B30EB795C
:105590002BB32B7A84F83C302B7A03B36B7A84F8E4
:1055A0003D306B7ADBB1AB7A84F83E30AB7AB3B185
:1055B000EB7A84F83F30EB7A8BB12B7B84F8403068
:1055C0002B7B63B16B7B84F841306B7B3BB1AB7B56
:1055D00084F84230AB7B13B1EB7B84F8433000237B
:1055E00084F84330089D062D28BF06254FF0000A99
:1055F000E5626564201DC4F848A0FFF73DFAC5F1D7
:10560000070504F11800FFF737FAC4F84CA0A561AC
:105610002461646284F850A084F852A03A4631466E
:10562000484601F077F82060B8F1000F01D0C8F8C3
:105630000040BDE8F08784F83450D3E780B5214CB2
:10564000214E224D224F4FF0E0294FF08058236821
:1056500053B301F087F8F368D3F80CA00AF1040003
:10566000FFF736FA2B68013B2B602368013B236070
:1056700001F09AF89AF8513063B1012B1ED0022B39
:10568000E5D04FF0500383F31188BFF36F8FBFF362
:105690004F8FFEE7DAF8300000F0A2FF504600F02E
:1056A0009FFF2368002BD4D13B68012BCFD9C9F8C9
:1056B000048DBFF34F8FBFF36F8FC8E7504600F0E4
:1056C0008FFFC4E70C1400207C1400200814002075
:1056D0007C13002030B587B00B9CC4B10C9D6DB11C
:1056E00054250595059D542D1AD04FF0500383F392
:1056F0001188BFF36F8FBFF34F8FFEE74FF050035A
:1057000083F31188BFF36F8FBFF34F8FFEE74FF026
:10571000500383F31188BFF36F8FBFF34F8FFEE702
:105720000C9D2C63022485F8514004ACCDE9014561
:105730000A9C0094059CFFF7E7FE0C98FFF712FE09
:10574000049807B030BD00BF2DE9F043074685B08F
:10575000900015468846994600F090FED8B1044660
:10576000542000F08BFE0646D0B10463002486F876
:1057700051400D9C01940C9C02964B462A46414692
:1057800038460094FFF7C0FE3046FFF7EBFD0120DE
:1057900005B0BDE8F0834FF0FF3005B0BDE8F08301
:1057A000204600F01DFF4FF0FF30F1E770B584B0E8
:1057B0006846002402AA01A9CDE90044FBF774FE63
:1057C0000198C8B1009D75B154230393039A029EBA
:1057D0009A421AD04FF0500383F31188BFF36F8FB2
:1057E000BFF34F8FFEE74FF0500383F31188BFF3F1
:1057F0006F8FBFF34F8FFEE74FF0500383F3118895
:10580000BFF36F8FBFF34F8FFEE7B6000223324620
:1058100085F85130A5212863039B0DF0AFF82A6B62
:1058200025496963331F281DC5E9114485F83840AF
:1058300085F84340EC62D618FFF71EF905F1180011
:10584000FFF71AF926F0070607231C49AB61224629
:10585000EC642D616D6285F8504085F85240304609
:1058600000F058FF28602846FFF77CFD00F068FD37
:1058700001280CD0013001D004B070BD4FF05003AE
:1058800083F31188BFF36F8FBFF34F8FFEE74FF0A5
:10589000500383F31188BFF36F8FBFF34F8F084915
:1058A000084A094B4FF0FF350D6010601C6004B0D2
:1058B000BDE8704000F0E8BF49444C453D56000843
:1058C000481400206414002090140020024A136839
:1058D00001331360704700BF14140020014B186897
:1058E000704700BF901400202DE9F04F4F4B1B680C
:1058F00083B0002B4BD14E4B1D6801351D60002D30
:1059000053D04C4B01931B68AB4266D84A4EDFF82C
:1059100040813368DFF83C911C68002C77D0474FFA
:1059200000244FF0010A24E00091FFF7D1F8DBF8E2
:10593000282000990BF1180012B1FFF7C9F800995F
:10594000DBF82C003B680AFA00F200EB80001A43F7
:1059500008EB80003A60FFF793F8D9F80030DBF8E5
:105960002C20DB6A9A4228BF012433681B68002B75
:105970004DD03368DB68D3F80CB0DBF804200BF1B2
:10598000040195420846CFD2019B1A602AE02C4AB6
:1059900013680133002413602A4B1B68002B0CBFD3
:1059A0002046012003B0BDE8F08F234B1A6812682F
:1059B00022BB254A186811681960244910600A68DA
:1059C00001320A601A68126832BB1A4B01931A46F8
:1059D0004FF0FF331360134695E7DFF87480DFF86C
:1059E00074900024D9F80030DB6A03EB83039B003A
:1059F00058F80330022B28BF0124CDE74FF05003A5
:105A000083F31188BFF36F8FBFF34F8FFEE7019AC7
:105A10004FF0FF331360E5E71B68064ADB6801922D
:105A2000DB685B68136013466DE700BF1414002049
:105A30009014002048140020741300201C1400202F
:105A40001014002094140020781300204C1400201F
:105A50007C130020701300202DE9F04F83B000F07C
:105A600081FE3D4B1A68013A1A601B68002B5AD11F
:105A70003A4B1B68002B56D0DFF8F8A0DAF800305C
:105A8000002B66D0364DDFF8F080364FDFF8EC9013
:105A90000126DAF80C30DC6804F1040B04F118007C
:105AA000FFF716F85846FFF713F8E06A2A6806FA77
:105AB00000F300EB80001343594608EB80002B6095
:105AC000FEF7DEFF3B68E26ADB6A9A4233D3C9F82D
:105AD0000060DAF80030002BDBD1234B1A68126823
